:020000040800F2
:100000000050002061150008491100084B1100083C
:100010004D1100084F1100085111000800000000A8
:100020000000000000000000000000005311000864
:100030005511000800000000571100085911000870
:10004000A9150008A9150008A9150008A915000898
:10005000A9150008A9150008A9150008A915000888
:10006000A9150008A9150008A9150008A915000878
:10007000A9150008A9150008A9150008A915000868
:10008000A9150008A9150008A9150008A915000858
:10009000A9150008A9150008A9150008A915000848
:1000A000A9150008A9150008A9150008A915000838
:1000B000A9150008A9150008A9150008A915000828
:1000C000A9150008A9150008A9150008A915000818
:1000D000A9150008A9150008A9150008A915000808
:1000E000A9150008A9150008A915000800000000BE
:1000F0000000000000000000000000000000000000
:0C01000000000000000000005FF808F1A3
:10010C0010B5054C237833B9044B13B10448AFF345
:10011C0000800123237010BD0C00002000000000A3
:10012C002016000808B5034B1BB103490348AFF375
:10013C00008008BD00000000100000202016000800
:10014C00034613F8012B002AFBD1181A013870470B
:10015C0010B504460E4B18784FF47A73B3FBF0F3DA
:10016C000C4A1068B0FBF3F000F096F868B90F2C4D
:10017C0001D901200AE0002221464FF0FF3000F0A7
:10018C0057F8054B1C60002000E0012010BD00BF9B
:10019C0000000020080000200400002008B5074AD9
:1001AC00136843F010031360032000F02FF80020B5
:1001BC00FFF7CEFF00F0A0FF002008BD002002409A
:1001CC00034A1168034B1B780B441360704700BF44
:1001DC006800002000000020014B1868704700BF29
:1001EC006800002038B50446FFF7F6FF0546B4F169
:1001FC00FF3F02D0044B1B781C44FFF7EDFF401B64
:10020C00A042FAD338BD00BF00000020074AD368D3
:10021C0023F4E0631B041B0C000200F4E0601843A1
:10022C0040F0BF6040F40030D060704700ED00E05B
:10023C0030B4174BDB68C3F30223C3F10704042C5F
:10024C0028BF04241D1D062D01D9033B00E000230B
:10025C004FF0FF3505FA04F421EA0401994005FA40
:10026C0003F322EA03031943002809DB0901C9B28D
:10027C0000F1604000F5614080F8001330BC70471D
:10028C0000F00F000901C9B2024B1954F6E700BF88
:10029C0000ED00E014ED00E00138B0F1807F0AD2EF
:1002AC00064B5860064AF02182F823100020986013
:1002BC0007221A6070470120704700BF10E000E071
:1002CC0000ED00E0F0B482B000263546A0E0002A34
:1002DC0058D0012A10D1CE680EE06A4FBA4251D0E4
:1002EC0048D9694FBA424DD007F58037BA4249D048
:1002FC00A7F58017BA4245D0FF2B57D88446FF2B61
:10030C0057D8AC00DCF800200F27A74022EA0702E0
:10031C0006FA04F42243CCF800204A6812F0805FFD
:10032C0075D05A4A946944F001049461926902F0C0
:10033C0001020192019AAC08A71C554A52F82720D9
:10034C0005F00307BF004FF00F0C0CFA07FC22EA74
:10035C000C0C504A904232D002F58062904271D01F
:10036C0002F5806290426FD002F58062904224D0F8
:10037C00042225E0A7F58017BA4203D007F5803791
:10038C00BA42B9D18A687AB1012A08D044610826E8
:10039C00B2E7CE680836AFE7CE680C36ACE704613E
:1003AC000826A9E70026A7E70426A5E700F1040C18
:1003BC00A5E7A5F10804A400A4E7032200E00022AD
:1003CC00BA4042EA0C020234314F47F824204A6802
:1003DC0012F4803F3AD0304C22681A4322604A68AB
:1003EC0012F4003F38D02C4C62681A4362604A68A1
:1003FC0012F4801F36D0284CA2681A43A2604A68B7
:10040C0012F4001F34D0244CE2681343E36001352E
:10041C000B6833FA05F231D00124AC4023409C42E6
:10042C00F5D14A68122AB7D03FF657AF022AB0D09E
:10043C007FF64DAF032AB5D0112A7FF45DAFCE689D
:10044C00043659E70122BBE70222B9E7124C2268B5
:10045C0022EA03022260C2E70F4C626822EA03021E
:10046C006260C4E70C4CA26822EA0302A260C6E7F1
:10047C00094CE26822EA0303E360C8E702B0F0BC6F
:10048C00704700BF00002110000031100010024026
:10049C000000014000080140000401400AB1016164
:1004AC00704709040161704782B0084B1B68084A09
:1004BC00A2FB03235B0A00FB03F0019000BF019B2E
:1004CC005A1E0192002BF9D102B07047080000208F
:1004DC00D34D6210002800F0F18170B582B0044653
:1004EC00036813F0010F2CD0AA4B5B6803F00C03CC
:1004FC00042B1DD0A74B5B6803F00C03082B12D008
:10050C006368B3F5803F41D0002B55D103F1804394
:10051C0003F504331A6822F480321A601A6822F444
:10052C0080221A6037E09B4B5B6813F4803FE7D066
:10053C00984B1B6813F4003F03D06368002B00F04A
:10054C00BF81236813F0020F75D0924B5B6813F0D8
:10055C000C0F5FD08F4B5B6803F00C03082B54D04F
:10056C002369002B00F089808B4B01221A60FFF766
:10057C0033FE0546874B1B6813F0020F74D1FFF74F
:10058C002BFE401B0228F5D903209EE1814A1368FB
:10059C0043F480331360636843B3FFF71DFE0546D5
:1005AC007C4B1B6813F4003FCBD1FFF715FE401BAF
:1005BC006428F5D9032088E1B3F5A02F09D0754B39
:1005CC001A6822F480321A601A6822F480221A60A7
:1005DC00E1E703F18043A3F53C331A6842F480222F
:1005EC001A601A6842F480321A60D4E7FFF7F4FDFF
:1005FC000546684B1B6813F4003FA2D0FFF7ECFDD7
:10060C00401B6428F5D903205FE1624B5B6813F44F
:10061C00803FA5D15F4B1B6813F0020F03D02369F9
:10062C00012B40F04F815B4A136823F0F80361699A
:10063C0043EAC1031360236813F0080F32D0A36997
:10064C00002B5BD0554B01221A60FFF7C5FD054608
:10065C00504B5B6A13F0020F21D1FFF7BDFD401B1D
:10066C000228F5D9032030E14A4A136823F0F80335
:10067C00616943EAC1031360DDE7474B00221A604E
:10068C00FFF7AAFD0546434B1B6813F0020FD2D0AF
:10069C00FFF7A2FD401B0228F5D9032015E101202C
:1006AC00FFF702FF236813F0040F00F09780394B1B
:1006BC00DB6913F0805F33D1364BDA6942F080523C
:1006CC00DA61DB6903F080530193019B0125344B04
:1006DC001B6813F4807F25D0E368012B36D0002BE8
:1006EC004CD103F1804303F504331A6A22F0010262
:1006FC001A621A6A22F004021A622CE0274B0022BA
:10070C001A60FFF769FD0546224B5B6A13F0020F76
:10071C00C8D0FFF761FD401B0228F5D90320D4E0B7
:10072C000025D4E71E4A136843F480731360FFF767
:10073C0053FD06461A4B1B6813F4807FCCD1FFF790
:10074C004BFD801B6428F5D90320BEE0114A136AC7
:10075C0043F001031362E36873B3FFF73DFD0646F4
:10076C000C4B1B6A13F0020F37D1FFF735FD801BC2
:10077C0041F288339842F3D90320A6E0052B11D01F
:10078C00044B1A6A22F001021A621A6A22F004025D
:10079C001A62E0E70010024000004242800442422C
:1007AC00007000404D4B1A6A42F004021A621A6A39
:1007BC0042F001021A62CEE7FFF70EFD0646474BE8
:1007CC001B6A13F0020F08D0FFF706FD801B41F2E5
:1007DC0088339842F3D9032077E0E5B9E369002B1D
:1007EC0072D03E4A526802F00C02082A56D0022BF4
:1007FC0017D03B4B00221A60FFF7EEFC0446374B38
:10080C001B6813F0007F47D0FFF7E6FC001B0228A3
:10081C00F5D9032059E0314AD36923F08053D361D1
:10082C00DCE72F4B00221A60FFF7D6FC05462B4B5A
:10083C001B6813F0007F06D0FFF7CEFC401B02288C
:10084C00F5D9032041E0236AB3F5803F1AD0234940
:10085C004B6823F47413226A606A024313434B609F
:10086C001F4B01221A60FFF7B7FC04461B4B1B6899
:10087C0013F0007F0ED1FFF7AFFC001B0228F5D957
:10088C00032022E0154A536823F40033A1680B437C
:10089C005360DCE7002018E0002016E0012B16D096
:1008AC000E4B5B6803F48031226A914211D103F440
:1008BC007013626A93420ED1002006E0012070474B
:1008CC00012002E0012000E0002002B070BD0120F8
:1008DC00FBE70120F9E70120F7E700BF0010024019
:1008EC006000424210B487B0164C94E80F000DF132
:1008FC00180C0CE90F00238AADF80430124B5B681E
:10090C0003F00C02082A03D0104807B010BC704743
:10091C00C3F38342624412F8102C13F4803F0CD0C2
:10092C00094B5B68C3F34043634413F8143C07481A
:10093C0000FB02F0B0FBF3F0E7E7054800FB02F028
:10094C00E3E700BF381600080010024000127A00DE
:10095C0000093D00002800F0A08070B50446534B00
:10096C001B6803F007038B420BD2504A136823F029
:10097C0007030B431360136803F007038B4240F02B
:10098C008E80236813F0020F17D013F0040F04D0DD
:10099C00474A536843F4E0635360236813F0080F2D
:1009AC0004D0434A536843F460535360404A53683D
:1009BC0023F0F003A068034353600D46236813F043
:1009CC00010F31D06368012B20D0022B25D0384A7F
:1009DC00126812F0020F64D035494A6822F0030203
:1009EC0013434B60FFF7F8FB0646314B5B6803F093
:1009FC000C036268B3EB820F16D0FFF7EDFB801B84
:100A0C0041F288339842F0D9032045E0284A126815
:100A1C0012F4003FE0D101203EE0254A126812F0AA
:100A2C00007FD9D1012037E0204B1B6803F007036E
:100A3C00AB420AD91D4A136823F007032B431360FA
:100A4C00136803F00703AB422DD1236813F0040F96
:100A5C0006D0174A536823F4E063E1680B435360F4
:100A6C00236813F0080F07D0114A536823F460531E
:100A7C00216943EAC1035360FFF734FF0C4B5B68F9
:100A8C00C3F303130B4AD35CD8400B4B18600B4BCE
:100A9C001868FFF75DFB002070BD01207047012036
:100AAC00FAE70120F8E70120F6E700BF002002403A
:100ABC00001002406016000808000020040000200E
:100ACC00014B1868704700BF0800002008B5FFF7FD
:100ADC00F7FF044B5B68C3F30223034AD35CD84093
:100AEC0008BD00BF001002407016000808B5FFF7E3
:100AFC00E7FF044B5B68C3F3C223034AD35CD840C3
:100B0C0008BD00BF001002407016000838B504463E
:100B1C000268136923F44053C1680B431361836863
:100B2C000269134342691A430168CB6823F4B0533A
:100B3C0023F00C031343CB600268536923F4407316
:100B4C0081690B4353610268214B9A421FD0FFF716
:100B5C00BDFF00EB800000EB800063689B00B0FBE6
:100B6C00F3F01C4DA5FB00325109642202FB11026B
:100B7C0013013233A5FB03235B0903F0F00202EBF4
:100B8C00011203F00F03216813448B6038BDFFF78B
:100B9C00ADFF00EB800000EB800063689B00B0FBB6
:100BAC00F3F00C4DA5FB00325109642202FB11023B
:100BBC0013013233A5FB03235B0903F0F00202EBB4
:100BCC00011203F00F03216813448B60DEE700BFB2
:100BDC00003801401F85EB512DE9F04105460F46C9
:100BEC0016469846069C2B681B6837EA03030CBF15
:100BFC0001230023B3421DD1B4F1FF3FF3D02CB13C
:100C0C00FFF7EAFAA0EB0800A042ECD92A68D368F7
:100C1C0023F4D073D3602A68536923F00103536122
:100C2C00202385F8393085F83A30002385F83830A0
:100C3C00032000E00020BDE8F08158B310B5044655
:100C4C0090F839300BB3242384F839302268D368F8
:100C5C0023F40053D3602046FFF758FF2268136932
:100C6C0023F4904313612268536923F02A035361E0
:100C7C002268D36843F40053D3600020E063202340
:100C8C0084F8393084F83A3010BD80F8383000F0F0
:100C9C00D5FAD8E7012070472DE9F04182B01E4605
:100CAC0090F83930DBB2202B55D104460D469046D6
:100CBC00002955D0002A55D090F83830012B53D04C
:100CCC00012380F838300023C363212380F83930A6
:100CDC00FFF782FA0746A4F82480A4F8268010E0D7
:100CEC0000963B46002280212046FFF775FF002826
:100CFC003CD12B882268C3F3080353602369C3B922
:100D0C000235E38C9BB2B3B1E38C013B9BB2E38421
:100D1C00A368B3F5805FE3D000963B4600228021A8
:100D2C002046FFF759FF18BB15F8012B23685A60B2
:100D3C00E7E70135E5E700963B46002240212046D7
:100D4C00FFF74AFF0346A8B9202284F83920002275
:100D5C0084F8382000E00223184602B0BDE8F08188
:100D6C000123F9E70123F7E70223F5E70323F3E770
:100D7C000323F1E70323EFE72DE9F04182B01E4690
:100D8C0090F83A30DBB2202B5AD104460D469046EF
:100D9C00002959D0002A59D090F83830012B57D05F
:100DAC00012380F838300023C363222380F83A30C3
:100DBC00FFF712FA0746A4F82C80A4F82E801DE049
:100DCC0000963B46002220212046FFF705FF002815
:100DDC0040D1236933B923685B68C3F3080325F852
:100DEC00023B0BE023685B68DBB225F8013B05E0B6
:100DFC0023685B6803F07F0305F8013BE38D9BB22E
:100E0C00BBB1E38D013B9BB2E385A368B3F5805F77
:100E1C00D6D000963B46002220212046FFF7DCFE70
:100E2C00D0B92369002BE3D123685B6805F8013B3B
:100E3C00E4E7202384F83A30002084F8380000E0FE
:100E4C00022002B0BDE8F0810120FAE70120F8E7AA
:100E5C000220F6E70320F4E70320F2E710B504467E
:100E6C004FF40072002100F0CDFB0023C4F80032D7
:100E7C00204610BD10B50446D0F80022002100F029
:100E8C00C1FB0023C4F8003210BD38B5D0F80032D5
:100E9C009C18B4F5007F01D9002038BD15460446D6
:100EAC00184400F0A1FBD4F800222A44C4F8002214
:100EBC000120F2E710B5044640F8041BFFF7CEFF03
:100ECC0004F50270FFF7CAFF002384F80C342046A7
:100EDC0010BD0000D0F808240AB90020704710B5E6
:100EEC0004464FF6FF7392B200F502710548FFF706
:100EFC00D3FE94F80832012B01D0002010BD012044
:100F0C00FCE700BF6C00002070B50446254D0022A4
:100F1C004FF480712846FFF7C1FA00224FF400719C
:100F2C002846FFF7BBFA00252E4604E063191B790F
:100F3C0084F80C340135D4F80422AA4219D994F857
:100F4C000C340D2BF2D163191B790A2BEED104F55D
:100F5C000273211DAA1B013231441E461846FFF7AD
:100F6C0094FF2046FFF7B6FF3046FFF783FF6E1C59
:100F7C00DCE7B2420DD80B4C01224FF480712046B5
:100F8C00FFF78CFA01224FF400712046FFF786FA26
:100F9C0070BD211D921B314404F50270FFF775FFE3
:100FAC00E9E700BF000C014038B505461BE02046C0
:100FBC00FFF7C6F8C5F80402B8B32846FFF7A4FF3C
:100FCC001E4C01224FF480712046FFF767FA002275
:100FDC004FF400712046FFF761FA281DFFF74AFF16
:100FEC000A20FFF7FFF8154C00224FF480712046C1
:100FFC00FFF754FA01224FF400712046FFF74EFA26
:10100C004FF6FF7307220E492868FFF745FE2C4662
:10101C0054F8040B64234FF400722146FFF7ACFE26
:10102C000028C4D00328CBD1C1E74FF6FF730922A7
:10103C0004490548FFF730FEC2E700BF000C014031
:10104C004C160008541600086C00002030B589B00E
:10105C0000220492059206920792254B996941F061
:10106C0020019961996901F0200101910199996917
:10107C0041F004019961996901F00401029102990E
:10108C00996941F0080199619B6903F00803039386
:10109C00039B184D4FF480712846FFF7FFF901228E
:1010AC004FF400712846FFF7F9F94FF4407304939D
:1010BC000124059402230693079404A92846FFF7FC
:1010CC0001F910230493059406940794A5F5806503
:1010DC000DEB03012846FFF7F5F820230493059444
:1010EC000694079404A92846FFF7ECF809B030BD24
:1010FC0000100240000C014082B00E4B9A6942F085
:10110C0001029A619A6902F001020092009ADA696E
:10111C0042F08052DA61DB6903F080530193019B4A
:10112C00054A536823F0E06343F08063536002B0D8
:10113C00704700BF00100240000001407047FEE7FE
:10114C00FEE7FEE7FEE770477047704708B5FFF70C
:10115C0037F808BD0F4B1A6842F001021A60596843
:10116C000D4A0A405A601A6822F0847222F48032C6
:10117C001A601A6822F480221A605A6822F4FE025D
:10118C005A604FF41F029A60044B4FF000629A6051
:10119C00704700BF001002400000FFF800ED00E0B7
:1011AC0008B50A480A4B03604FF4E133436000234F
:1011BC008360C36003610C2242618361C361FFF7EA
:1011CC003CFD00B908BD00F0C3F9FBE76C00002042
:1011DC000038014008B50A480A4B03604FF4164327
:1011EC00436000238360C36003610C22426183610E
:1011FC00C361FFF722FD00B908BD00F0A9F9FBE7B8
:10120C00AC0000200044004008B50A480A4B0360BB
:10121C004FF46123436000238360C36003610C229D
:10122C0042618361C361FFF708FD00B908BD00F09E
:10123C008FF9FBE7AC0000200044004010B588B0EB
:10124C000023049305930693079303682C4A934257
:10125C0004D02C4A93422BD008B010BD2A4B9A696B
:10126C0042F480429A619A6902F480420092009A98
:10127C009A6942F004029A619B6903F0040301939A
:10128C00019B4FF4007304930223059303230793EC
:10129C001E4C04A92046FFF715F84FF48063049305
:1012AC0000230593069304A92046FFF70BF8D3E718
:1012BC00154BDA6942F40032DA61DA6902F4003271
:1012CC000292029A9A6942F004029A619B6903F0B5
:1012DC0004030393039B0423049302230593032326
:1012EC0007930A4C04A92046FEF7ECFF082304934D
:1012FC0000230593069304A92046FEF7E3FFABE712
:10130C000038014000440040001002400008014039
:10131C0000238B4203D20022C2540133F9E77047F9
:10132C0070B50446002508E03A48FEF709FF00B105
:10133C00012540213748FFF7EBFF95B94FF6FF73B6
:10134C00042235492046FFF7A7FC4FF4FA734022DC
:10135C0030492046FFF710FD0028E5D00328E8D1DE
:10136C00E2E74FF6FF730B222C492046FFF794FC63
:10137C004FF4FA73402227492046FFF7FDFC18B3BF
:10138C00032821D0234E40213046FFF7C1FF4FF6F2
:10139C00FF73142222492046FFF77EFC4FF4FA73A8
:1013AC00402231462046FFF7E7FCD8B1032819D07C
:1013BC0040211848FFF7ACFF4FF6FF730A2219497A
:1013CC002046FFF769FC1CE01248FEF7B9FEB8B1E5
:1013DC00104B1B784F2B16D10E4B5B784B2BD1D06F
:1013EC0000250EE00B48FEF7ABFE70B1094B1B78E5
:1013FC004F2B0CD1074B5B784B2BD9D0002500E041
:10140C000025284670BD0025FBE70025F9E70025DF
:10141C00F7E700BF280000207816000880160008A7
:10142C008C160008A416000830B591B0002408945E
:10143C0009940B940C9401940294039404940594D1
:10144C00012206924FF4803307930A9202250D95E0
:10145C000E934FF4E0130F9306A8FFF73BF80F23FE
:10146C000193029503944FF48063049305942946E9
:10147C0001A8FFF76FFA11B030BD000010B5ADF543
:10148C00826DFEF78BFEFFF7CFFFFFF7DFFDFFF757
:10149C0087FEFFF79FFE4FF6FF731022284929485D
:1014AC00FFF7FAFB284C00224FF480712046FEF720
:1014BC00F5FF01224FF400712046FEF7EFFFA4F573
:1014CC008064012210212046FEF7E8FF0122202132
:1014DC002046FEF7E3FF6420FEF784FE0022102175
:1014EC002046FEF7DBFF1948FFF71AFFD0B10022A8
:1014FC0020212046FEF7D2FF00224FF40071124843
:10150C00FEF7CCFFFFF780FE6420FEF76BFE0F4961
:10151C006846FFF7CFFC6846FFF746FD00200DF547
:10152C00826D10BD084C01224FF480712046FEF7ED
:10153C00B5FF01224FF400712046FEF7AFFFE1E743
:10154C00B01600086C000020000C0140AC0000201C
:10155C0070470000002103E00B4B5B5843500431F3
:10156C000A480B4B42189A42F6D30A4A02E000236F
:10157C0042F8043B084B9A42F9D3FFF7EBFD00F01D
:10158C000FF8FFF77BFF7047CC1600080000002017
:10159C000C0000200C000020EC000020FEE70000F6
:1015AC0070B500260C4D0D4C641BA410A64209D13D
:1015BC0000F030F800260A4D0A4C641BA410A64219
:1015CC0005D170BD55F8043B98470136EEE755F848
:1015DC00043B98470136F2E7C4160008C41600080D
:1015EC00C4160008C81600080A44914200F1FF33E3
:1015FC0000D1704710B511F8014B914203F8014F1F
:10160C00F9D110BD03460244934200D1704703F850
:10161C00011BF9E7F8B500BFF8BC08BC9E46704743
:0C162C00F8B500BFF8BC08BC9E46704733
:1016380002030405060708090A0B0C0D0E0F10100B
:101648000102000068656C6C6F0D0A006E6F7468AB
:10165800696E670D0A00000000000000000000002D
:101668000102030406070809000000000102030440
:1016780041540D0A0000000041542B524F4C453D87
:10168800300D0A0041542B554152543D3932313600
:1016980030302C302C300D0A0000000041542B5201
:1016A800455345540D0A0000555341525420547275
:0C16B800616E736D69740D0A0000000083
:0416C40031010008E8
:0416C8000D01000808
:0C16CC0001000000100000000024F400E9
:040000050800156179
:00000001FF
