:020000040800F2
:100000000028002061250008551F0008571F000820
:10001000591F00085B1F00085D1F0008000000005A
:100020000000000000000000000000005F1F00084A
:10003000611F000800000000631F0008651F000822
:10004000A9250008A9250008A9250008A925000858
:10005000A9250008A9250008A9250008A925000848
:10006000A9250008A9250008A9250008A925000838
:10007000A9250008A9250008A9250008A925000828
:10008000A9250008A9250008A9250008A925000818
:10009000A9250008A9250008A9250008A925000808
:1000A000A9250008A9250008A9250008A9250008F8
:1000B000A9250008A925000800000000A9250008BE
:1000C000A92500080000000000000000A925000884
:1000D00000000000A9250008A92500080000000074
:1000E000A9250008A9250008A9250008000000008E
:1000F0000000000000000000000000000000000000
:0C01000000000000000000005FF808F1A3
:1001100010B5054C237833B9044B13B10448AFF341
:1001200000800123237010BDDC01002000000000CE
:100130000C40000808B5034B1BB103490348AFF35B
:10014000008008BD00000000E00100200C40000815
:10015000034613F8012B002AFBD1181A0138704707
:1001600081F0004102E000BF83F0004330B54FEA68
:1001700041044FEA430594EA050F08BF90EA020FD5
:100180001FBF54EA000C55EA020C7FEA645C7FEA68
:10019000655C00F0E2804FEA5454D4EB5555B8BF8B
:1001A0006D420CDD2C4480EA020281EA030382EAFC
:1001B000000083EA010180EA020281EA0303362D8E
:1001C00088BF30BD11F0004F4FEA01314FF4801C61
:1001D0004CEA113102D0404261EB410113F0004F73
:1001E0004FEA03334CEA133302D0524263EB43032A
:1001F00094EA050F00F0A780A4F10104D5F1200EC8
:100200000DDB02FA0EFC22FA05F2801841F1000122
:1002100003FA0EF2801843FA05F359410EE0A5F1F6
:1002200020050EF1200E012A03FA0EFC28BF4CF027
:10023000020C43FA05F3C01851EBE37101F00045DD
:1002400007D54FF0000EDCF1000C7EEB00006EEBEA
:100250000101B1F5801F1BD3B1F5001F0CD3490874
:100260005FEA30004FEA3C0C04F101044FEA4452CB
:1002700012F5800F80F09A80BCF1004F08BF5FEA52
:10028000500C50F1000041EB045141EA050130BD32
:100290005FEA4C0C404141EB010111F4801FA4F1D5
:1002A0000104E9D191F0000F04BF01460020B1FA2A
:1002B00081F308BF2033A3F10B03B3F120020CDA62
:1002C0000C3208DD02F1140CC2F10C0201FA0CF040
:1002D00021FA02F10CE002F11402D8BFC2F1200CA5
:1002E00001FA02F120FA0CFCDCBF41EA0C0190405B
:1002F000E41AA2BF01EB0451294330BD6FEA0404A4
:100300001F3C1CDA0C340EDC04F11404C4F120028E
:1003100020FA04F001FA02F340EA030021FA04F3A0
:1003200045EA030130BDC4F10C04C4F1200220FAF7
:1003300002F001FA04F340EA0300294630BD21FA35
:1003400004F0294630BD94F0000F83F4801306BFFB
:1003500081F480110134013D4EE77FEA645C18BFEF
:100360007FEA655C29D094EA050F08BF90EA020F86
:1003700005D054EA000C04BF1946104630BD91EA7E
:10038000030F1EBF0021002030BD5FEA545C05D181
:100390004000494128BF41F0004130BD14F58004C0
:1003A0003CBF01F5801130BD01F0004545F0FE4134
:1003B00041F470014FF0000030BD7FEA645C1ABF69
:1003C000194610467FEA655C1CBF0B46024650EAA0
:1003D000013406BF52EA033591EA030F41F40021CC
:1003E00030BD00BF90F0000F04BF0021704730B552
:1003F0004FF4806404F132044FF000054FF0000127
:1004000050E700BF90F0000F04BF0021704730B5E7
:100410004FF4806404F1320410F0004548BF4042BC
:100420004FF000013EE700BF42004FEAE2014FEA11
:1004300031014FEA02701FBF12F07F4393F07F4FEC
:1004400081F06051704732F07F4208BF704793F0EF
:100450007F4F04BF41F40021704730B54FF4607402
:1004600001F0004521F000411CE700BF50EA010205
:1004700008BF704730B54FF000050AE050EA0102AE
:1004800008BF704730B511F0004502D5404261EB1E
:1004900041014FF4806404F132045FEA915C3FF45F
:1004A000D8AE4FF003025FEADC0C18BF03325FEAFC
:1004B000DC0C18BF033202EBDC02C2F1200300FAAD
:1004C00003FC20FA02F001FA03FE40EA0E0021FAD2
:1004D00002F11444BDE600BF70B54FF0FF0C4CF4C0
:1004E000E06C1CEA11541DBF1CEA135594EA0C0F72
:1004F00095EA0C0F00F0DEF82C4481EA030621EAAD
:100500004C5123EA4C5350EA013518BF52EA0335E7
:1005100041F4801143F4801338D0A0FB02CE4FF099
:100520000005E1FB02E506F00042E0FB03E54FF0C9
:100530000006E1FB03569CF0000F18BF4EF0010EC1
:10054000A4F1FF04B6F5007F64F5407404D25FEABD
:100550004E0E6D4146EB060642EAC62141EA555170
:100560004FEAC52040EA5E504FEACE2EB4F1FD0CB2
:1005700088BFBCF5E06F1ED8BEF1004F08BF5FEA30
:10058000500E50F1000041EB045170BD06F00046E2
:1005900046EA010140EA020081EA0301B4EB5C048F
:1005A000C2BFD4EB0C0541EA045170BD41F4801187
:1005B0004FF0000E013C00F3AB8014F1360FDEBFAC
:1005C000002001F0004170BDC4F10004203C35DA88
:1005D0000C341BDC04F11404C4F1200500FA05F30B
:1005E00020FA04F001FA05F240EA020001F00042AC
:1005F00021F0004110EBD37021FA04F642EB060122
:100600005EEA430E08BF20EAD37070BDC4F10C044B
:10061000C4F1200500FA04F320FA05F001FA04F20F
:1006200040EA020001F0004110EBD37041F10001FB
:100630005EEA430E08BF20EAD37070BDC4F1200506
:1006400000FA05F24EEA020E20FA04F301FA05F26E
:1006500043EA020321FA04F001F0004121FA04F216
:1006600020EA020000EBD3705EEA430E08BF20EAE6
:10067000D37070BD94F0000F0FD101F00046400020
:1006800041EB010111F4801F08BF013CF7D041EAA2
:10069000060195F0000F18BF704703F000465200A6
:1006A00043EB030313F4801F08BF013DF7D043EA77
:1006B0000603704794EA0C0F0CEA135518BF95EA2D
:1006C0000C0F0CD050EA410618BF52EA4306D1D1B4
:1006D00081EA030101F000414FF0000070BD50EAD3
:1006E000410606BF1046194652EA430619D094EA5D
:1006F0000C0F02D150EA013613D195EA0C0F05D147
:1007000052EA03361CBF104619460AD181EA03019A
:1007100001F0004141F0FE4141F470014FF0000052
:1007200070BD41F0FE4141F4780170BD70B54FF0ED
:10073000FF0C4CF4E06C1CEA11541DBF1CEA13556D
:1007400094EA0C0F95EA0C0F00F0A7F8A4EB05044F
:1007500081EA030E52EA03354FEA013100F0888046
:100760004FEA03334FF0805545EA131343EA12630F
:100770004FEA022245EA111545EA10654FEA0026C4
:100780000EF000419D4208BF964244F1FD0404F57D
:10079000407402D25B084FEA3202B61A65EB0305D9
:1007A0005B084FEA32024FF480104FF4002CB6EB96
:1007B000020E75EB030E22BFB61A754640EA0C0016
:1007C0005B084FEA3202B6EB020E75EB030E22BF56
:1007D000B61A754640EA5C005B084FEA3202B6EB97
:1007E000020E75EB030E22BFB61A754640EA9C0056
:1007F0005B084FEA3202B6EB020E75EB030E22BF26
:10080000B61A754640EADC0055EA060E18D04FEAE3
:10081000051545EA16754FEA06164FEAC30343EA83
:1008200052734FEAC2025FEA1C1CC0D111F4801F50
:100830000BD141EA00014FF000004FF0004CB6E749
:1008400011F4801F04BF01430020B4F1FD0C88BFE8
:10085000BCF5E06F3FF6AFAEB5EB030C04BFB6EBF3
:10086000020C5FEA500C50F1000041EB045170BDE6
:100870000EF0004E4EEA113114EB5C04C2BFD4EB13
:100880000C0541EA045170BD41F480114FF0000E97
:10089000013C90E645EA060E8DE60CEA135594EA13
:1008A0000C0F08BF95EA0C0F3FF43BAF94EA0C0F16
:1008B0000AD150EA01347FF434AF95EA0C0F7FF48B
:1008C00025AF104619462CE795EA0C0F06D152EADF
:1008D00003353FF4FDAE1046194622E750EA4106C3
:1008E00018BF52EA43067FF4C5AE50EA41047FF4D4
:1008F0000DAF52EA43057FF4EBAE12E74FF0FF3C39
:1009000006E000BF4FF0010C02E000BF4FF0010C09
:100910004DF804CD4FEA410C7FEA6C5C4FEA430C82
:1009200018BF7FEA6C5C1BD001B050EA410C0CBFD1
:1009300052EA430C91EA030F02BF90EA020F002033
:10094000704710F1000F91EA030F58BF994208BF9A
:1009500090422CBFD8176FEAE37040F00100704757
:100960004FEA410C7FEA6C5C02D150EA013C07D1AE
:100970004FEA430C7FEA6C5CD6D152EA033CD3D0F9
:100980005DF8040B704700BF8446104662468C46F3
:100990001946634600E000BF01B5FFF7B7FF002826
:1009A00048BF10F1000F01BD4DF808EDFFF7F4FF4F
:1009B0000CBF012000205DF808FB00BF4DF808EDDA
:1009C000FFF7EAFF34BF012000205DF808FB00BFFD
:1009D0004DF808EDFFF7E0FF94BF012000205DF81F
:1009E00008FB00BF4DF808EDFFF7CEFF94BF0120D4
:1009F00000205DF808FB00BF4DF808EDFFF7C4FFCD
:100A000034BF012000205DF808FB00BF4FEA410C15
:100A10007FEA6C5C02D150EA013C0AD14FEA430CF8
:100A20007FEA6C5C02D152EA033C02D14FF0000035
:100A300070474FF0010070474FEA410212F5001273
:100A400015D211D56FF47873B3EB625212D94FEA15
:100A5000C12343F0004343EA505311F0004F23FAFF
:100A600002F018BF404270474FF00000704750EA54
:100A7000013005D111F0004008BF6FF00040704711
:100A80004FF00000704700BF4FF0FF3C06E000BF92
:100A90004FF0010C02E000BF4FF0010C4DF804CD07
:100AA0004FEA40024FEA41037FEA226C18BF7FEA17
:100AB000236C11D001B052EA530C18BF90EA010F19
:100AC00058BFB2EB030088BFC81738BF6FEAE170A8
:100AD00018BF40F0010070477FEA226C02D15FEA44
:100AE000402C05D17FEA236CE4D15FEA412CE1D0B0
:100AF0005DF8040B704700BF844608466146FFE777
:100B00000FB5FFF7C9FF002848BF10F1000F0FBD58
:100B10004DF808EDFFF7F4FF0CBF012000205DF851
:100B200008FB00BF4DF808EDFFF7EAFF34BF0120D6
:100B300000205DF808FB00BF4DF808EDFFF7E0FF6F
:100B400094BF012000205DF808FB00BF4DF808EDC0
:100B5000FFF7D2FF94BF012000205DF808FB00BF23
:100B60004DF808EDFFF7C8FF34BF012000205DF805
:100B700008FB00BF10B504460E4B18784FF47A738B
:100B8000B3FBF0F30C4A1068B0FBF3F000F096F8FA
:100B900068B90F2C01D901200AE0002221464FF04C
:100BA000FF3000F057F8054B1C60002000E00120EA
:100BB00010BD00BF0000002008000020040000203D
:100BC00008B5074A136843F010031360032000F0D0
:100BD0002FF80020FFF7CEFF01F09AF9002008BDA2
:100BE00000200240034A1168034B1B780B4413603A
:100BF000704700BF4402002000000020014B18682D
:100C0000704700BF4402002038B50446FFF7F6FFE6
:100C10000546B4F1FF3F02D0044B1B781C44FFF79C
:100C2000EDFF401BA042FAD338BD00BF00000020FA
:100C3000074AD36823F4E0631B041B0C000200F492
:100C4000E060184340F0BF6040F40030D06070476F
:100C500000ED00E030B4174BDB68C3F30223C3F1AF
:100C60000704042C28BF04241D1D062D01D9033BB5
:100C700000E000234FF0FF3505FA04F421EA0401F7
:100C8000994005FA03F322EA03031943002809DB1C
:100C90000901C9B200F1604000F5614080F800131D
:100CA00030BC704700F00F000901C9B2024B195463
:100CB000F6E700BF00ED00E014ED00E00138B0F110
:100CC000807F0AD2064B5860064AF02182F8231032
:100CD0000020986007221A6070470120704700BF0B
:100CE00010E000E000ED00E0F0B482B000263546F0
:100CF0007DE0002A00F09D80012A15D1CE6813E026
:100D00006A4FBA4200F0958040F28A80684FBA423A
:100D100000F08F8007F58037BA4200F08A80A7F58F
:100D20008017BA4200F08580FF2B00F2968084463F
:100D3000FF2B00F29580AC00DCF800200F27A740C5
:100D400022EA070206FA04F42243CCF800204A689B
:100D500012F0805F4AD0574A946944F001049461CC
:100D6000926902F001020192019AAC08A71C524A52
:100D700052F8272005F00307BF004FF00F0C0CFAC4
:100D800007FC22EA0C0C4D4A90426FD002F58062BB
:100D900090426DD002F58062904265D00322BA4045
:100DA00042EA0C020234444F47F824204A6812F405
:100DB000803F5FD0424C22681A4322604A6812F496
:100DC000003F5DD03E4C62681A4362604A6812F48C
:100DD000801F5BD03A4CA2681A43A2604A6812F4A2
:100DE000001F59D0364CE2681343E36001350B68AD
:100DF00033FA05F256D00124AC4023409C42F5D191
:100E00004A68122A1FD03FF67BAF022A18D07FF61D
:100E100070AF032A1DD0112A86D1CE68043683E72D
:100E2000A7F58017BA4204D007F58037BA427FF49D
:100E30007BAF8A687AB1012A08D04461082673E73B
:100E4000CE68083670E7CE680C366DE70461082678
:100E50006AE7002668E7042666E700F1040C67E706
:100E6000A5F10804A40067E7022298E7002296E7AC
:100E7000012294E7124C226822EA030222609DE7D5
:100E80000F4C626822EA030262609FE70C4CA26882
:100E900022EA0302A260A1E7094CE26822EA030306
:100EA000E360A3E702B0F0BC704700BF0000211070
:100EB0000000311000100240000001400008014015
:100EC000000401400AB101617047090401617047E3
:100ED00082B0084B1B68084AA2FB03235B0A00FB95
:100EE00003F0019000BF019B5A1E0192002BF9D123
:100EF00002B0704708000020D34D6210002800F0B7
:100F0000F18170B582B00446036813F0010F2CD054
:100F1000AA4B5B6803F00C03042B1DD0A74B5B6846
:100F200003F00C03082B12D06368B3F5803F41D067
:100F3000002B55D103F1804303F504331A6822F4E2
:100F400080321A601A6822F480221A6037E09B4BC4
:100F50005B6813F4803FE7D0984B1B6813F4003FA5
:100F600003D06368002B00F0BF81236813F0020FE9
:100F700075D0924B5B6813F00C0F5FD08F4B5B68A2
:100F800003F00C03082B54D02369002B00F0898058
:100F90008B4B01221A60FFF731FE0546874B1B6819
:100FA00013F0020F74D1FFF729FE401B0228F5D978
:100FB00003209EE1814A136843F480331360636821
:100FC00043B3FFF71BFE05467C4B1B6813F4003F41
:100FD000CBD1FFF713FE401B6428F5D9032088E12D
:100FE000B3F5A02F09D0754B1A6822F480321A602D
:100FF0001A6822F480221A60E1E703F18043A3F526
:101000003C331A6842F480221A601A6842F4803233
:101010001A60D4E7FFF7F2FD0546684B1B6813F42E
:10102000003FA2D0FFF7EAFD401B6428F5D903205A
:101030005FE1624B5B6813F4803FA5D15F4B1B6897
:1010400013F0020F03D02369012B40F04F815B4A5C
:10105000136823F0F803616943EAC103136023684E
:1010600013F0080F32D0A369002B5BD0554B01223F
:101070001A60FFF7C3FD0546504B5B6A13F0020F81
:1010800021D1FFF7BBFD401B0228F5D9032030E139
:101090004A4A136823F0F803616943EAC103136005
:1010A000DDE7474B00221A60FFF7A8FD0546434BDA
:1010B0001B6813F0020FD2D0FFF7A0FD401B0228DF
:1010C000F5D9032015E10120FFF702FF236813F093
:1010D000040F00F09780394BDB6913F0805F33D148
:1010E000364BDA6942F08052DA61DB6903F08053F3
:1010F0000193019B0125344B1B6813F4807F25D09D
:10110000E368012B36D0002B4CD103F1804303F56B
:1011100004331A6A22F001021A621A6A22F00402E7
:101120001A622CE0274B00221A60FFF767FD054684
:10113000224B5B6A13F0020FC8D0FFF75FFD401B24
:101140000228F5D90320D4E00025D4E71E4A13680D
:1011500043F480731360FFF751FD06461A4B1B687A
:1011600013F4807FCCD1FFF749FD801B6428F5D9AB
:101170000320BEE0114A136A43F001031362E368DF
:1011800073B3FFF73BFD06460C4B1B6A13F0020FCF
:1011900037D1FFF733FD801B41F288339842F3D9F2
:1011A0000320A6E0052B11D0044B1A6A22F001029D
:1011B0001A621A6A22F004021A62E0E70010024082
:1011C0000000424280044242007000404D4B1A6AC7
:1011D00042F004021A621A6A42F001021A62CEE771
:1011E000FFF70CFD0646474B1B6A13F0020F08D0B1
:1011F000FFF704FD801B41F288339842F3D90320A6
:1012000077E0E5B9E369002B72D03E4A526802F0FC
:101210000C02082A56D0022B17D03B4B00221A6032
:10122000FFF7ECFC0446374B1B6813F0007F47D0F8
:10123000FFF7E4FC001B0228F5D9032059E0314AEE
:10124000D36923F08053D361DCE72F4B00221A606F
:10125000FFF7D4FC05462B4B1B6813F0007F06D02C
:10126000FFF7CCFC401B0228F5D9032041E0236A9C
:10127000B3F5803F1AD023494B6823F47413226AD4
:10128000606A024313434B601F4B01221A60FFF751
:10129000B5FC04461B4B1B6813F0007F0ED1FFF713
:1012A000ADFC001B0228F5D9032022E0154A536843
:1012B00023F40033A1680B435360DCE7002018E0FF
:1012C000002016E0012B16D00E4B5B6803F4803132
:1012D000226A914211D103F47013626A93420ED1D3
:1012E000002006E001207047012002E0012000E01C
:1012F000002002B070BD0120FBE70120F9E70120CA
:10130000F7E700BF001002406000424210B487B00F
:10131000164C94E80F000DF1180C0CE90F00238A0D
:10132000ADF80430124B5B6803F00C02082A03D0BE
:10133000104807B010BC7047C3F38342624412F8F0
:10134000102C13F4803F0CD0094B5B68C3F340436F
:10135000634413F8143C074800FB02F0B0FBF3F0C1
:10136000E7E7054800FB02F0E3E700BF284000087C
:101370000010024000127A0000093D00002800F031
:10138000A08070B50446534B1B6803F007038B42E3
:101390000BD2504A136823F007030B431360136802
:1013A00003F007038B4240F08E80236813F0020F96
:1013B00017D013F0040F04D0474A536843F4E06396
:1013C0005360236813F0080F04D0434A536843F472
:1013D00060535360404A536823F0F003A06803430E
:1013E00053600D46236813F0010F31D06368012B61
:1013F00020D0022B25D0384A126812F0020F64D098
:1014000035494A6822F0030213434B60FFF7F6FBAD
:101410000646314B5B6803F00C036268B3EB820F46
:1014200016D0FFF7EBFB801B41F288339842F0D9CE
:10143000032045E0284A126812F4003FE0D1012061
:101440003EE0254A126812F0007FD9D1012037E032
:10145000204B1B6803F00703AB420AD91D4A1368EF
:1014600023F007032B431360136803F00703AB4219
:101470002DD1236813F0040F06D0174A536823F4C4
:10148000E063E1680B435360236813F0080F07D053
:10149000114A536823F46053216943EAC10353603E
:1014A000FFF734FF0C4B5B68C3F303130B4AD35CA9
:1014B000D8400B4B18600B4B1868FFF75BFB002004
:1014C00070BD012070470120FAE70120F8E70120F4
:1014D000F6E700BF00200240001002403C40000838
:1014E0000800002004000020014B1868704700BF6E
:1014F0000800002008B5FFF7F7FF044B5B68C3F353
:101500000223034AD35CD84008BD00BF001002404C
:101510004C40000808B5FFF7E7FF044B5B68C3F3D6
:10152000C223034AD35CD84008BD00BF001002406C
:101530004C40000870B4036A23F001030362036A9D
:101540004668826922F073020C6844EA020523F0BF
:1015500002028B6813430D4CA04209D00B4CA042F1
:101560000DD0466085614A684263036270BC704773
:1015700023F00803CA68134323F00403EEE726F4BC
:1015800040764A6932438E691643EAE7002C0140EF
:1015900030B4036A23F480730362036A4568C26946
:1015A00022F073020C68224323F400738C6843EA30
:1015B00004230F4CA04209D00D4CA0420ED0456030
:1015C000C2614A68C263036230BC704723F400639F
:1015D000CC6843EA042323F48063EDE725F4405507
:1015E0004C6945EA04158C6945EA0415E7E700BF34
:1015F000002C014030B4036A23F480530362036A71
:101600004468C26922F4E6420D6842EA052223F4E6
:1016100000538D6843EA0533074DA84206D0446065
:10162000C2614A680264036230BC704724F480449B
:101630004D6944EA8514F2E7002C01400368174A1B
:10164000904206D0B0F1804F03D0A2F59432904280
:1016500003D123F070034A681343104A904206D026
:10166000B0F1804F03D0A2F59432904203D123F41D
:101670004073CA68134323F080034A69134303602D
:101680008B68C3620B688362044B984202D00123CB
:10169000436170470B690363F9E700BF002C014009
:1016A000B0B110B5044690F83D3063B1022384F820
:1016B0003D30214651F8040BFFF7C0FF012384F8A9
:1016C0003D30002010BD80F83C3000F075FCEDE7A7
:1016D0000120704730B4036A23F010030362036AE9
:1016E0004468826922F4E6420D6842EA052223F04A
:1016F00020038D6843EA05130E4DA84209D00D4D15
:10170000A8420ED0446082614A688263036230BCA2
:10171000704723F08003CD6843EA051323F04003AC
:10172000EDE724F440644D6944EA85048D6944EA98
:101730008504E7E7002C014038B590F83C30012BD8
:1017400066D00D460446012380F83C30022380F821
:101750003D300C2A1AD8DFE802F0071919192019B0
:1017600019193419191947000068FFF7E3FE2268B8
:10177000936943F0080393612268936923F004039B
:1017800093612268936929690B439361012384F86B
:101790003D30002084F83C0038BD0068FFF79AFF18
:1017A0002268936943F4006393612268936923F488
:1017B0008063936122689369296943EA01239361F5
:1017C000E4E70068FFF7E4FE2268D36943F008030A
:1017D000D3612268D36923F00403D3612268D369FB
:1017E00029690B43D361D1E70068FFF703FF226843
:1017F000D36943F40063D3612268D36923F480631F
:10180000D3612268D369296943EA0123D361BDE723
:101810000220C1E710B401F01F01012303FA01F413
:10182000036A23EA04030362036A8A4013430362E0
:1018300010BC704710B5044601220068FFF7EAFFAC
:1018400023680A4A93420BD02268936803F0070387
:10185000062B03D0136843F001031360002010BD72
:101860005A6C42F400425A64EEE700BF002C01407B
:1018700090F83C30012B1CD070B4012680F83C60FD
:10188000022380F83D3002685568936825F07005A2
:101890000C682C4323F080054B682B43546002688E
:1018A000936080F83D60002380F83C30184670BC9F
:1018B00070470220704790F83C30012B22D0012362
:1018C00080F83C30CB6823F440738A68134323F4D8
:1018D00080634A68134323F400630A68134323F4C4
:1018E00080530A69134323F400534A69134323F4D2
:1018F0008043CA69134302685364002380F83C3074
:10190000184670470220704738B5044602681369CC
:1019100023F44053C1680B43136183680269134386
:1019200042691A430168CB6823F4B05323F00C03D7
:101930001343CB600268536923F4407381690B43FE
:1019400053610268214B9A421FD0FFF7D3FD00EB91
:10195000800000EB800063689B00B0FBF3F01C4D3F
:10196000A5FB00325109642202FB1102130132333C
:10197000A5FB03235B0903F0F00202EB011203F065
:101980000F03216813448B6038BDFFF7C3FD00EBE4
:10199000800000EB800063689B00B0FBF3F00C4D0F
:1019A000A5FB00325109642202FB110213013233FC
:1019B000A5FB03235B0903F0F00202EB011203F025
:1019C0000F03216813448B60DEE700BF003801403D
:1019D0001F85EB512DE9F04105460F461646984606
:1019E000069C2B681B6837EA03030CBF0123002306
:1019F000B3421DD1B4F1FF3FF3D02CB1FFF7FEF895
:101A0000A0EB0800A042ECD92A68D36823F4D07375
:101A1000D3602A68536923F001035361202385F8BA
:101A2000393085F83A30002385F83830032000E05B
:101A30000020BDE8F08158B310B5044690F8393065
:101A40000BB3242384F839302268D36823F400537D
:101A5000D3602046FFF758FF2268136923F49043B0
:101A600013612268536923F02A0353612268D36803
:101A700043F40053D3600020E063202384F839301E
:101A800084F83A3010BD80F8383000F0DFFBD8E73A
:101A9000012070472DE9F04182B01E4690F83930A0
:101AA000DBB2202B55D104460D469046002955D077
:101AB000002A55D090F83830012B53D0012380F8FC
:101AC00038300023C363212380F83930FFF796F8BC
:101AD0000746A4F82480A4F8268010E000963B4630
:101AE000002280212046FFF775FF00283CD12B887B
:101AF0002268C3F3080353602369C3B90235E38C3A
:101B00009BB2B3B1E38C013B9BB2E384A368B3F512
:101B1000805FE3D000963B46002280212046FFF7FD
:101B200059FF18BB15F8012B23685A60E7E7013508
:101B3000E5E700963B46002240212046FFF74AFF9A
:101B40000346A8B9202284F83920002284F83820DE
:101B500000E00223184602B0BDE8F0810123F9E756
:101B60000123F7E70223F5E70323F3E70323F1E774
:101B70000323EFE72DE9F04182B01E4690F83A309A
:101B8000DBB2202B5AD104460D469046002959D08D
:101B9000002A59D090F83830012B57D0012380F813
:101BA00038300023C363222380F83A30FFF726F849
:101BB0000746A4F82C80A4F82E801DE000963B4632
:101BC000002220212046FFF705FF002840D123698D
:101BD00033B923685B68C3F3080325F8023B0BE0C5
:101BE00023685B68DBB225F8013B05E023685B688E
:101BF00003F07F0305F8013BE38D9BB2BBB1E38D9E
:101C0000013B9BB2E385A368B3F5805FD6D0009615
:101C10003B46002220212046FFF7DCFED0B9236995
:101C2000002BE3D123685B6805F8013BE4E7202340
:101C300084F83A30002084F8380000E0022002B036
:101C4000BDE8F0810120FAE70120F8E70220F6E77D
:101C50000320F4E70320F2E710B504464FF40072C6
:101C6000002100F0D5FC0023C4F80032204610BD4E
:101C700010B50446D0F80022002100F0C9FC002372
:101C8000C4F8003210BD38B5D0F800329C18B4F555
:101C9000007F01D9002038BD15460446184400F0E5
:101CA000A9FCD4F800222A44C4F800220120F2E75B
:101CB00082B0C3788DF8043083788DF8053043788E
:101CC0008DF8063003788DF80730019802B0704720
:101CD00010B5044640F8041BFFF7BEFF04F5027080
:101CE000FFF7BAFF002384F80C34C4F81034204600
:101CF00010BD00000000000038B5D0F80834002BFB
:101D00004BD0D0F810340133C0F8103490F80832BA
:101D1000012B01D0002038BD044600F20920FFF756
:101D2000C7FF054604F20D20FFF7C2FF044600215D
:101D30002846FEF7F7FE90BB4FF07E512846FEF78F
:101D40000FFF70BB00212046FEF7ECFE58BB4FF0A2
:101D50007E512046FEF704FF38BB2046FEF764FBA9
:101D600013A3D3E90023FEF7B7FBFEF765FE124B82
:101D70001B6800F5487058632846FEF755FB0CA316
:101D8000D3E90023FEF7A8FBFEF756FE0B4B1B68BA
:101D900000F5487058630120BDE70020BBE7002034
:101DA000B9E70020B7E70020B5E70020B3E700BFA0
:101DB0000000000000189540480200208802002022
:101DC00070B5044600252E4604E063191B7984F89B
:101DD0000C340135D4F80422AA4219D994F80C34F1
:101DE0000D2BF2D163191B790A2BEED104F5027386
:101DF000211DAA1B013231441E461846FFF743FF3E
:101E00002046FFF779FF3046FFF732FF6E1CDCE714
:101E1000B24200D870BD211D921B314404F50270FE
:101E2000FFF731FFF6E738B505460BE02046FEF731
:101E30008FF9C5F8040210B12846FFF7C1FF281D2D
:101E4000FFF716FF2C4654F8040B0A234FF40072D8
:101E50002146FFF78FFE0028E8D00328EFD1E5E701
:101E600070B588B000240494059406940794254B1B
:101E70009A6942F010029A619A6902F01002009287
:101E8000009A9A6942F020029A619A6902F020024F
:101E90000192019A9A6942F004029A619A6902F0E9
:101EA00004020292029A9A6942F008029A619B69BE
:101EB00003F008030393039B134D22464FF4C051D4
:101EC0002846FEF7FFFF114E22464FF400413046F0
:101ED000FEF7F8FF4FF440430493012405940223D6
:101EE0000693079404A93046FEF7FEFE4FF4C05354
:101EF000049305940694079404A92846FEF7F4FE7B
:101F000008B070BD0010024000080140000C014004
:101F100082B00E4B9A6942F001029A619A6902F00E
:101F200001020092009ADA6942F08052DA61DB69BC
:101F300003F080530193019B054A536823F0E0634B
:101F400043F08063536002B0704700BF001002404E
:101F5000000001407047FEE7FEE7FEE7FEE770473E
:101F60007047704708B5FEF73DFE08BD0F4B1A6875
:101F700042F001021A6059680D4A0A405A601A6814
:101F800022F0847222F480321A601A6822F48022CD
:101F90001A605A6822F4FE025A604FF41F029A60D7
:101FA000044B4FF000629A60704700BF001002407F
:101FB0000000FFF800ED00E082B003680E4A934293
:101FC00004D00E4A93420CD002B070470C4B9A6971
:101FD00042F400629A619B6903F400630093009BE2
:101FE000F2E7074BDA6942F00202DA61DB6903F0DB
:101FF00002030193019BE7E7002C0140000400402D
:102000000010024000B587B00023029303930493AD
:10201000059303681D4A934205D01D4A934217D089
:1020200007B05DF804FB1B4B9A6942F004029A6109
:102030009B6903F004030093009B4FF480730293A9
:1020400002230393059302A91348FEF74DFEE7E729
:10205000104B9A6942F008029A619B6903F00803E9
:102060000193019B1023029302230393059302A97A
:102070000A48FEF739FE0A4A536823F4406343F0E6
:10208000E06343F400635360CAE700BF002C0140E3
:10209000000400400010024000080140000C014014
:1020A0000000014010B592B00024109411940994DE
:1020B0000A940B940C940D940E940F9420222146B4
:1020C00001A800F0A5FA2448244B0360482343608C
:1020D00084604FF4FA63C360046144618461FFF774
:1020E000DFFA00282CD100231093119310A91A486D
:1020F000FFF7BEFB38BB602309934FF47A730A9352
:1021000000220B920C9204230D930E920F9209A9B8
:102110001148FFF711FBC8B9002301930293039301
:10212000049305934FF400520692089301A90A48BC
:10213000FFF7C1FB68B90848FFF764FF12B010BD94
:1021400000F06CF9CFE700F069F9D4E700F066F928
:10215000E2E700F063F9EEE788020020002C01407E
:1021600000B58BB000230893099301930293039366
:1021700004930593069307931848194A026048226E
:10218000426083604FF4FA62C26003618361FFF7CB
:1021900087FAD0B900230893099308A90F48FFF7DD
:1021A00067FBA8B9602301934FF47A73029300226E
:1021B0000392059201A90948FFF7BEFA58B90748EA
:1021C000FFF720FF0BB05DF804FB00F027F9E1E713
:1021D00000F024F9E6E700F021F9F0E748020020DA
:1021E0000004004008B50A480A4B03604FF4164348
:1021F000436000238360C36003610C2242618361FA
:10220000C361FFF718FC00B908BD00F007F9FBE750
:10221000C80200200038014008B50A480A4B036094
:102220004FF46123436000238360C36003610C2289
:1022300042618361C361FFF7FEFB00B908BD00F096
:10224000EDF8FBE7C80200200038014010B586B069
:10225000002302930393049305930268174B9A4259
:1022600001D006B010BD03F558439A6942F480428C
:102270009A619A6902F480420092009A9A6942F047
:1022800004029A619B6903F004030193019B4FF4DC
:10229000007302930223039303230593084C02A9BE
:1022A0002046FEF721FD4FF4806302930023039341
:1022B000049302A92046FEF717FDD2E7003801403B
:1022C0000008014000238B4203D20022C254013394
:1022D000F9E7704770B5044601224FF48041494840
:1022E000FEF7F0FD002508E04748FDF731FFC0B1DB
:1022F000012540214448FFF7E5FF25BB4FF6FF735A
:10230000042242492046FFF7C5FB4FF4FA734022EE
:102310003D492046FFF72EFC0028E5D00328E8D1F0
:10232000E2E7384E01224FF480413046FEF7CAFD05
:102330004FF4FA70FEF768FC00224FF480413046FB
:10234000FEF7C0FDD5E701224FF480412D48FEF78E
:10235000B9FD4FF6FF730B222D492046FFF79AFB7C
:102360004FF4FA73402228492046FFF703FC18B3C4
:10237000032821D0244E40213046FFF7A3FF4FF61B
:10238000FF73142223492046FFF784FB4FF4FA73AE
:10239000402231462046FFF7EDFBD8B1032819D083
:1023A00040211948FFF78EFF4FF6FF730A221A49A2
:1023B0002046FFF76FFB1CE01348FDF7C9FEB8B1DC
:1023C000114B1B784F2B16D10F4B5B784B2BD1D079
:1023D00000250EE00C48FDF7BBFE70B10A4B1B78E0
:1023E0004F2B0CD1084B5B784B2BD9D0002500E04C
:1023F0000025284670BD0025FBE70025F9E70025EC
:10240000F7E700BF000C0140F8010020544000082D
:102410005C400008684000088040000808B50122C0
:102420004FF400410148FEF74DFD08BD000C01408E
:1024300000B591B00023089309930B930C9301937B
:102440000293039304930593012206924FF4803381
:1024500007930A9202220D920E934FF4E0130F930A
:1024600006A8FEF74BFD80B90F23019302210291CC
:10247000002303934FF480620492059301A8FEF7B2
:102480007DFF28B911B05DF804FBFFF7C7FFEBE74C
:10249000FFF7C4FFF6E7000010B5ADF5836DFEF75A
:1024A0008FFBFFF7C5FFFFF7DBFCFFF7FBFDFFF737
:1024B00057FEFFF797FE00212448FFF7BBF90021E4
:1024C0002348FFF7B7F900224FF400412148FEF7F7
:1024D000F9FC214C01224FF400612046FEF7F2FC8A
:1024E00001224FF480512046FEF7ECFC6420FEF7F9
:1024F0008BFB00224FF400612046FEF7E3FC1748F7
:10250000FFF7E8FED8B100224FF480512046FEF7D5
:10251000D9FC00224FF400410E48FEF7D3FCFFF730
:102520007BFE6420FEF770FB0C4901A8FFF7D0FB8F
:1025300001A8FFF778FC00200DF5836D10BD012286
:102540004FF400410348FEF7BDFCE8E78802002095
:1025500048020020000C014000080140C802002091
:10256000002103E00B4B5B58435004310A480B4BEE
:1025700042189A42F6D30A4A02E0002342F8043B8A
:10258000084B9A42F9D3FFF7F1FC00F00FF8FFF780
:1025900083FF7047C042000800000020DC010020DB
:1025A000DC01002018030020FEE7000070B50026C3
:1025B0000C4D0D4C641BA410A64209D101F026FD60
:1025C00000260A4D0A4C641BA410A64205D170BD1A
:1025D00055F8043B98470136EEE755F8043B984719
:1025E0000136F2E7B8420008B8420008B8420008D5
:1025F000BC4200080A44914200F1FF3300D1704709
:1026000010B511F8014B914203F8014FF9D110BDFB
:1026100003460244934200D1704703F8011BF9E7D7
:10262000002B2DE9F0471E46BBBF03F100431E46B9
:1026300000232D2388B0149F144627F02007129AF8
:10264000462F109DDDF84CA0137004D0452F00D10B
:102650000135022300E0032307AA049206AACDE96C
:1026600002A2CDE900352246334600F089FB472F10
:10267000804602D1119BDB0722D5462F08EB0509C6
:1026800011D198F80030302B0AD1002200232046C7
:102690003146FEF789F918B9C5F10105CAF80050AD
:1026A000DAF8003099440022002320463146FEF734
:1026B0007BF908B1CDF81C903022079B4B4508D31D
:1026C0004046079B159AA3EB0803136008B0BDE8CA
:1026D000F087591C07911A70EFE7F7B50029B6BFCC
:1026E0002D232B23494209290270437022DD0DF16D
:1026F00007031F460A2691FBF6F206FB1214632914
:1027000004F1300403F1FF3503F8014C0ADC3032E8
:1027100005F8012C023B821CBB42144605D3201A4B
:1027200003B0F0BD2B461146E5E713F8011B02F894
:10273000011BF1E7302319448370041DC170EEE7DB
:102740002DE9F04F91B00C461A9F93461E46054660
:1027500001F0C6F8036818460993FDF7F9FC002359
:102760000E933B680A90073323F0070303F1080236
:1027700094F81880D4F800A03A60D3E90023C4E9A3
:102780001223D4E9129727F000430B934FF0FF3246
:10279000A64B48460B99FEF739F968BB4FF0FF325C
:1027A000A24B48460B99FEF713F928BB00220023E1
:1027B00048463946FEF702F910B12D2384F843301C
:1027C0009B4F9C4BB8F1470F88BF1F4603234FF028
:1027D000000923612AF00403236000965B460FAAD8
:1027E0002146284600F0CAF9013040F08F804FF0B2
:1027F000FF3011B0BDE8F08F4A463B4648463946A7
:10280000FEF704F940B1002FB8BF2D238A4FB8BF9F
:1028100084F84330894BD5E7636808F0DF015A1C20
:1028200042D106236360002206920EAACDE90482FB
:102830000DAA4AF4806303920DF13302CDE901320F
:10284000236063684A46009328463B460B91FFF796
:10285000E7FE0B99074647290D9908D1C81C02DBF2
:102860006368994240DDA8F102085FFA88F8B8F180
:10287000650F1FD80139424604F150000D91FFF752
:102880002CFF0E9A81461318012A236102DC22686C
:10289000D20701D5013323619DF83330002B9CD042
:1028A0002D2384F8433098E74729BCD1002BBAD1B7
:1028B0000123B7E7B8F1660F18D1002963680BDD73
:1028C000216113B92268D00702D501330B4423617B
:1028D000A1654FF00009DFE713B92268D20701D5DF
:1028E0000233F4E70123F2E74FF067080E9B9942A9
:1028F00005DB23682161D807EAD54B1CE7E70029EF
:10290000CCBF0122C1F102021344E0E723685A055B
:1029100007D423693A4659462846B047013029D1A1
:1029200065E7B8F1650F40F2D880D4E912010022C2
:102930000023FEF739F888B30123414A5946284657
:10294000B04701303FF453AFDDE90D239A4202DB7B
:102950002368D8070ED5DDE9092359462846B04734
:1029600001303FF444AF002704F11A080E9B013BED
:10297000BB4209DC23689F0700F1FB80E0680F9BE6
:102980009842B8BF184634E70123424659462846C4
:10299000B04701303FF42BAF0137E7E70D9B002B29
:1029A0002BDC0123264A59462846B04701303FF424
:1029B0001EAFDDE90D23134302D12368D907D9D512
:1029C000DDE9092359462846B04701303FF40FAFEF
:1029D0004FF0000804F11A090D9B5B42434501DCEE
:1029E0000E9B97E701234A4659462846B0470130D7
:1029F0003FF4FDAE08F10108EEE70E9AA36D9A428E
:102A0000A8BF1A46002A904607DD134659463A46A3
:102A10002846B04701303FF4EAAE04F11A034FF004
:102A2000000A28EAE8780B9316E000BFFFFFEF7F6B
:102A30008C4000089040000894400008984000082E
:102A40009C40000801230B9A59462846B0470130A4
:102A50003FF4CDAE0AF1010AD4F85890A9EB08036F
:102A60005345EFDCDDE90D239A421ADB2368DA07D0
:102A700017D4DDE90D2391451BDBA3EB0908B8F161
:102A8000000F08DD434607EB090259462846B047C8
:102A900001303FF4ACAE002728EAE87804F11A09C7
:102AA00013E0DDE9092359462846B0470130E0D15B
:102AB0009DE6A3EB0208E2E701234A465946284671
:102AC000B04701303FF493AE0137DDE90D239B1A87
:102AD000A3EB0803BB42EFDC4CE70E9A012A01DCB2
:102AE000DB0734D501233A4659462846B047013022
:102AF0003FF47DAEDDE9092359462846B047013051
:102B00003FF475AED4E9120100220023FDF74CFF1B
:102B1000C8B90E9B7A1C013B59462846B047013084
:102B20000DD164E60123424659462846B04701309C
:102B30003FF45DAE01370E9B013BBB42F2DC4B46DE
:102B400004F15002E7E6002704F11A08F3E7012335
:102B50003A46E1E70123424659462846B04701304C
:102B60003FF445AE0137E3680F9A9B1ABB42F1DC94
:102B700004E7002704F11908F5E700BF2DE9F04745
:102B800091461F468A680B6906469342B8BF1346B2
:102B9000C9F8003091F843200C46DDF8208012B1CE
:102BA0000133C9F800302368990642BFD9F80030D4
:102BB0000233C9F80030256815F0060507D104F185
:102BC000190AE368D9F800209B1AAB4229DC94F873
:102BD00043302268003318BF012392062ED404F13B
:102BE000430239463046C047013021D02368E568AA
:102BF00003F00603042B18BF0025D9F800204FF07E
:102C0000000908BFAD1AA368226908BF25EAE57567
:102C10009342C4BF9B1AED181A344D451AD10020B7
:102C200008E00123524639463046C047013003D1FF
:102C30004FF0FF30BDE8F0870135C2E73020E118E2
:102C400081F843005A1C94F845102244023382F85C
:102C50004310C4E70123224639463046C0470130BD
:102C6000E6D009F10109D8E72DE9F74F03690C69AE
:102C70008046A342C0F28280013CA00008F1140506
:102C800001F114072B18019357F8243055F824202C
:102C900001339A4207EB0009B2FBF3F632D34FF04F
:102CA000000ABC46AE46D3465CF8042B93B206FB42
:102CB00003A3120C4FEA134A06FB02A29BB2ABEB32
:102CC0000303DEF800B04FEA124A1FFA8BFB5B44A5
:102CD0001FFA82FBDEF80020E145CBEB124202EB4B
:102CE00023429BB243EA02434FEA224B4EF8043B95
:102CF000DAD22B5833B9019B043B9D421A4631D39B
:102D0000C8F81040404601F006F8002826DB2846A7
:102D10004FF0000C013657F8041BD0F800E08BB2DE
:102D2000ACEB03031FFA8EF213440A0CC2EB1E42F3
:102D300002EB23429BB243EA0243B9454FEA224CDD
:102D400040F8043BE7D255F8242005EB84032AB968
:102D5000043B9D421A460BD3C8F81040304603B0DE
:102D6000BDE8F08F1268043B002AC9D1013CC4E7DA
:102D70001268043B002AEFD1013CEAE70020EEE7AD
:102D80002DE9F04F476A97B080461D46239E924634
:102D90009B4647B9102000F0A7FDC0E90177C8F8AD
:102DA00024000760C760D8F82430196859B15A6800
:102DB000012393404A608B60404600F0D1FD002221
:102DC000D8F824301A602B1EADBF0023012223F057
:102DD000004B3360AE4BB8BF326033EA0B035C4646
:102DE0001AD142F20F73229A1360CBF3130353EA02
:102DF0000A0300F05F85249B53B9A64B21E0A64B44
:102E000005930833249A1360059817B0BDE8F08F36
:102E1000A04B05930333F5E70022002350465946A3
:102E2000CDE90CABFDF7C0FD074660B10123229A46
:102E30001360249B002B00F03A85984B249A136072
:102E4000013B0593E0E714AB019315AB00934046BB
:102E5000DDE90C2300F0D7FFCBF30A560390002ED8
:102E600000F08180DDE90C450D9BA6F2FF36C3F32F
:102E7000130343F07F5545F4401512970022884B09
:102E800020462946FDF770F97BA3D3E90023FDF71F
:102E900023FB7BA3D3E90023FDF768F90446304602
:102EA0000D46FDF7AFFA78A3D3E90023FDF714FB35
:102EB00002460B4620462946FDF758F904460D46C2
:102EC000FDF7BAFD00228146002320462946FDF782
:102ED00075FD48B14846FDF795FA22462B46FDF7A9
:102EE00063FD08B909F1FF39B9F1160F58D8DDE9CA
:102EF0000C016C4B03EBC903D3E90023FDF75EFD26
:102F000000284FD0002309F1FF391193149B9E1B19
:102F1000731E099345BFC6F10103089300230023E4
:102F200054BF08930993B9F1000F3DDB099BCDF81D
:102F300040904B44099300230A93209B092B00F2F5
:102F40008D80052BC4BF043B2093209BC8BF002469
:102F5000A3F10203D8BF0124032B00F2A780DFE80E
:102F600003F02D3A387BDDE914631E4406F232404B
:102F70002028C1BFC0F14000844006F212402AFA66
:102F800000F0D6BFC0F1200020430AFA00F0FDF7A0
:102F900029FA01230446A1F1F875013E12936DE769
:102FA0000123B2E71190B1E7089BA3EB0903089353
:102FB000C9F100030A9300231093BEE700230B938B
:102FC000219B002B75DC01231A4606930493219262
:102FD0000BE00123F3E700230B93219B4B44069363
:102FE0000133012B0493B8BF01230022D8F82450E9
:102FF0006A60042202F11400984269685DD9404673
:1030000000F07AFCD8F8243028601B680593049BF4
:103010000E2B00F2D580002C00F0D280B9F1000F09
:1030200069DD204A09F00F0302EBC303D3E9003442
:10303000CDE90E344FEA2914E0065AD5DDE90C013A
:10304000194B0327D3E90823FDF770FB82468B4613
:1030500004F00F04144D41E00123BDE701240023D7
:103060000B9420934FF0FF33002206930493122316
:10307000ADE700BFAFF3008061436F63A787D23F26
:10308000B3C8608B288AC63FFB799F501344D33F57
:103090000000F07FA74000089E4000089D40000807
:1030A0000000F83FD8400008B040000801230B930F
:1030B000D8E7219B0693049397E70131696052009A
:1030C00098E7E10708D5DDE90E01D5E90023FDF712
:1030D00003FACDE90E01013764100835002CF0D158
:1030E000DDE90E2350465946FDF720FB82468B460C
:1030F0001AE00227AEE700F09D80DDE90C01C9F17E
:1031000000049B4B04F00F0203EBC203D3E900233E
:10311000FDF7E2F9022782468B460023954D2411E4
:10312000002C7CD1002BE1D1119B002B00F084807E
:103130000022914B504659465D46FDF73FFC002862
:103140007AD0049B002B77D0069B002B36DD5046AF
:1031500059460022894BFDF7BFF982468B46069CF3
:1031600009F1FF3601373846FDF74CF952465B4608
:10317000FDF7B2F90022824BFCF7F8FFA1F1507580
:10318000CDE90E010F95002C59D100227D4B504600
:103190005946FCF7E9FF0E9A2B4682468B46FDF70F
:1031A0002BFC002840F086820E9A05F10043504621
:1031B0005946FDF703FC002840F07A82DDE90CABAC
:1031C000159B002BC0F24B81B9F10E0F00F3478124
:1031D000674B03EBC903D3E90034CDE90634219BE7
:1031E000002B80F2D380049B002B00F3CF8040F0B3
:1031F0005E82DDE906010022624BFDF76DF9524661
:103200005B46FDF7EFFB049C2646002840F0378222
:103210003123059D09F1010905F8013B33E2E2077D
:1032200005D5D5E90023FDF757F9012301376410CF
:10323000083575E7022777E74E46049C93E74C4B29
:1032400003EBC40353E90201059B1C440B9B002BB9
:1032500044D002460B4600204B49FDF767FADDE9F2
:103260000E23FCF781FFCDE90E01059D594650461E
:10327000FDF7E2FB0746FDF7C5F802460B46504650
:103280005946FCF771FFDDE90E23303705F8017B65
:1032900082468B46FDF792FB00285FD152465B4683
:1032A00000203549FCF760FFDDE90E23FDF786FBC2
:1032B000002840F0B580A54280D0DDE90E01002253
:1032C0002E4BFDF709F90022CDE90E012B4B50469C
:1032D0005946FDF701F982468B46C7E7DDE90E2323
:1032E000FDF7FAF82546CDE90E01059F59465046EF
:1032F000FDF7A2FB1390FDF785F802460B465046FA
:103300005946FCF731FF139B8246303307F8013BE7
:10331000A7428B464FF0000224D1DDE90E011A4B83
:10332000FCF724FF02460B4650465946FDF764FB66
:10333000002875D1DDE90E2300201349FCF714FFA6
:1033400002460B4650465946FDF738FB00283FF42D
:1033500035AF15F8013C6A1E302B01D0B1464EE066
:103360001546F6E7054BFDF7B7F882468B46BDE7F5
:10337000D8400008B04000080000F03F00002440A2
:1033800000001C40000014400000E03F56464FF093
:10339000000A5F46059DDFF844B5DDE906233046A7
:1033A0003946FDF7C3F9FDF747FB0446FDF72AF858
:1033B000DDE90623FDF790F802460B463046394614
:1033C000FCF7D2FE04F1300605F8016B059E049F60
:1033D000AE1BB74202460B4634D1FCF7C7FEDDE90F
:1033E000062306460F46FDF707FBC0B9DDE90623B5
:1033F00030463946FDF7D8FA08B1E3070FD40399F0
:10340000404600F0ADFA0023229A2B7009F1010327
:103410001360249B002B3FF4F7AC1D60F4E44E4690
:1034200015F8012C6B1E392A06D1059A9A4207D14C
:103430003022059901360A701A7801321A708DE728
:103440001D46EDE752465B46FDF746F80022002395
:1034500006460F46FDF7A8FA00289ED0CFE70B9A44
:10346000002A00F0CC80209A012A00F3AE80129A44
:10347000002A00F0A68003F233430A9C089D089AB4
:1034800001211A440892099A40461A44099200F010
:1034900009FB0646002D0CDD099B002B09DDAB4224
:1034A000A8BF2B46089AED1AD21A0892099AD31A85
:1034B00009930A9BF3B10B9B002B00F0A480002C16
:1034C00010DD31462246404600F084FB039A014657
:1034D0000646404600F0EFFA07460399404600F0E2
:1034E0003FFA03970A9B1A1B04D00399404600F049
:1034F00071FB03900121404600F0D4FA109B044672
:10350000002B40F382801A460146404600F062FBE1
:10351000209B0446012B7BDD0027236904EB8303FA
:10352000186900F06FFAC0F12000099B184410F0F0
:103530001F0000F08B80C0F12003042B40F3848037
:10354000C0F11C00089B054403440893099B0344F5
:103550000993089B002B05DD1A460399404600F0AD
:1035600087FB0390099B002B05DD21461A46404648
:1035700000F07EFB0446119B002B69D02146039886
:1035800000F0C9FB002863DA00230A2203994046B1
:1035900000F0FDF90B9B09F1FF390390002B00F0BF
:1035A0009081002331460A22404600F0F0F9069B44
:1035B0000646002B00F38780209B022B40F383807C
:1035C0004EE0149BC3F1360357E7049B5C1E0A9B35
:1035D000A342B7BF0A9B1C1BE21A109BBEBF0A94F2
:1035E0009B181093049BB8BF0024002BBBBF089B03
:1035F000049A089D9D1AACBF049B00233FE70A9CD8
:10360000089D0B9E46E70A9A6FE7209B012B17DC6B
:10361000BAF1000F14D1CBF313039BB92BF0004781
:103620003F0D3F0537B10127089B01330893099BE4
:1036300001330993109B002B7FF46FAF012074E7D7
:103640000027F7E75746F5E783D018461C3079E79F
:10365000049B002B31DC209B022B2EDD049B069368
:10366000069B63B921460522404600F090F90146C9
:103670000446039800F04FFB00283FF7C9AD219B9B
:10368000059D6FEA030900272146404600F068F9CE
:10369000002E3FF4B4AE2FB1B74203D039464046B6
:1036A00000F05EF93146404600F05AF9A7E60024E2
:1036B0002646E4E7B1462646AAE50B9B002B00F020
:1036C000BB80049B0693002D05DD31462A4640460B
:1036D00000F0CEFA0646002F52D07168404600F046
:1036E0000BF90546326906F10C01023292000C30EA
:1036F000FEF780FF01222946404600F0B9FA37461E
:103700000646059B01330493DDE9052313440A9320
:103710000AF001030993049B2146039803F1FF3A41
:10372000FFF7A2FA3946069000F1300B039800F03B
:10373000F2FA324608902146404600F006FBC26885
:103740000546FAB90146039800F0E5FA0246294613
:1037500040460B9200F004F9209B0B9A049D43EA2B
:103760000201099B0B430FD1BBF1390F28D0089BF5
:10377000002B02DD069B03F1310B8AF800B083E7D2
:103780003046BCE70122E2E7089B002B04DB2099CE
:103790000B4309990B431DD1002AEEDD0122039949
:1037A000404600F065FA2146039000F0B4FA002884
:1037B00003DCE2D11BF0010FDFD0BBF1390FD9D10F
:1037C00039238AF8003015F8013C6A1E392B63D082
:1037D000013368E0002A07DDBBF1390FF0D00BF1AF
:1037E00001038AF800304FE7049B0A9A03F801BCF2
:1037F00093423AD000230A220399404600F0C7F8CA
:10380000B74203904FF000034FF00A02394640469A
:1038100007D100F0BCF807460646049B0133049329
:1038200079E700F0B4F83146074600230A22404603
:1038300000F0ADF80646F0E7049B0693059D21468F
:103840000398FFF711FA059B00F1300B05F801BB57
:10385000EA1A069B934207DD00230A220399404699
:1038600000F095F80390EAE700270122039940460B
:1038700000F0FEF92146039000F04DFA0028A2DC8A
:1038800002D11BF0010F9ED115F8013C6A1E302BAE
:103890007FF4FAAE1546F7E7059B934205D1312335
:1038A000059A09F101091370EEE615468BE7094BFD
:1038B000FFF7C7BA249B002B7FF4A1AA064BFFF7A2
:1038C000C0BA069B002BB9DC209B022B3FF7C8AE89
:1038D000B4E700BF9C4000089E4000080000244060
:1038E0000048704760010020024B0146186800F054
:1038F000E7BA00BF0C00002070B5456A04460E46CA
:103900003DB91020FFF7F0FFC0E901556062056086
:10391000C560656AEB6883B1636ADB6853F82600AB
:10392000B8B9012101FA06F56A1D9200204600F09F
:10393000B8FA60B1C0E901650EE0212204212046F9
:1039400000F0AFFA636AE860DB68002BE4D1002086
:1039500070BD026843F826200023C0E90333F7E76F
:1039600070B5446A06460D463CB91020FFF7BCFF0F
:10397000C0E9014470620460C4603DB1736A6A6862
:10398000DB6853F82210296043F8225070BD2DE9FE
:10399000F0411F4606460C4600230D6901F1140C48
:1039A000DCF80000013381B202FB0171000C0F0C46
:1039B00002FB007089B201EB00419D424FEA1047C3
:1039C0004CF8041BECDCD7B1A368AB4212DC616895
:1039D00030460131FFF790FF8046226904F10C0167
:1039E000023292000C30FEF705FE21463046FFF70A
:1039F000B7FF444604EB850301355F61256120462E
:103A0000BDE8F081020C12040346CAB90304102079
:103A100013F07F4F04BF1B02083013F0704F04BF38
:103A20001B01043013F0404F04BF9B000230002BF9
:103A300005DB13F0804F00F1010008BF2020704724
:103A40000020E5E70368014613F007020BD0DA0710
:103A500024D4980749BF5B089B0801200B605CBF1A
:103A60000B600220704798B2B0B910201B0C13F005
:103A7000FF0F04BF1B0A08301A0704BF1B090430DC
:103A80009A0704BF9B080230DA0703D45B0800F1F1
:103A9000010005D00B6070471046E8E70020704732
:103AA0002020704710B50C460121FFF725FF0122A9
:103AB0004461026110BD2DE9F74F90460A69D8F8BC
:103AC00010300C469A42BEBF0B46444698462769C2
:103AD000D8F81090A368616807EB0906B342B8BF35
:103AE0000131FFF709FF00F114052B46002205EB19
:103AF000860E734516D304F1140308F1140203EB88
:103B0000870702EB89030093009B019293420CD834
:103B1000002E03DD5EF8043D002B59D0066103B092
:103B2000BDE8F08F43F8042BE3E7B2F800A0BAF148
:103B3000000F23D0AC464FF0000804F1140959F8E7
:103B4000041BDCF800B08BB21FFA8BFB0AFB03B33B
:103B50004FEA114BDCF8001043444FEA11480AFBCE
:103B60000B8101EB13419BB243EA01434F454FEAFE
:103B700011484CF8043BE2D8CCF80080019B043299
:103B8000B3F80290B9F1000F20D0AC464FF0000A14
:103B90002B6804F11408B8F80010BCF802B09BB20E
:103BA00009FB01B18A4443EA0A434CF8043B58F844
:103BB000043BBCF800101B0C09FB0313474503EB47
:103BC0001A434FEA134AE6D8CCF8003004359BE795
:103BD000013E9DE72DE9F843154612F00302064623
:103BE0000F4607D0214C013A002354F82220FFF75A
:103BF000CEFE0746AD1035D0746A3CB91020FFF7F1
:103C000073FEC0E9014470620460C460D6F8248089
:103C1000D8F808404CB940F271213046FFF742FF16
:103C200000230446C8F8080003604FF00008EB07C3
:103C30000AD5394622463046FFF73DFF81463946D0
:103C40003046FFF78DFE4F466D100BD0206838B917
:103C5000224621463046FFF72EFF2060C0F8008044
:103C60000446E4E73846BDE8F88300BFA0410008F9
:103C70002DE9F0470C460746164623694FEA621ABB
:103C80000AEB03094968A36809F10105AB4233DB7C
:103C90003846FFF731FE0023804600F1140100F1A1
:103CA0001002184653452ADB20692AEAEA7A04F111
:103CB000140316F01F0201EB8A0103EB800C22D0E3
:103CC0000020C2F1200E1E689640304341F8040BDC
:103CD00053F8040B9C4520FA0EF0F4D8086008B1A4
:103CE00009F10205013D3846C8F810502146FFF79A
:103CF00037FE4046BDE8F08701315B00C6E742F879
:103D0000040F0133CEE7043953F8042B9C4541F8E6
:103D1000042FF9D8E6E703690A6930B59B1A0CD17C
:103D20009200143014318418114454F8045D51F891
:103D3000042D954203D005D30123184630BDA0427F
:103D4000F3D3FAE74FF0FF33F7E72DE9F0470D46DD
:103D50000746114628461446FFF7DDFF061E08D128
:103D600031463846FFF7C8FD0123C0E90436BDE8F7
:103D7000F087A4BF23462C4638466168A6BF1D467F
:103D800000260126FFF7B8FD4FF0000EC6602B6934
:103D9000266904F1140205F1140902EB860709EB08
:103DA000830800F1140152F804AB59F8045B1FFAC0
:103DB0008AF37344ACB21B1B2C0CC4EB1A4404EB07
:103DC00023449BB24FEA244EC84543EA0444944638
:103DD00041F8044BE7D8BC4504D351F8043D83B106
:103DE0000661C4E75CF8044BA2B27244131403EBFF
:103DF000144392B242EA03424FEA234E41F8042BA5
:103E0000E9E7013EE9E72DE9F3411C46DDE90865F4
:103E100001219046FFF770FDC4F31302C4F30A5466
:103E200007462CBB0192B8F1000226D068460092EA
:103E3000FFF708FE0099F0B1019AC0F1200302FAE1
:103E400003F30B43C2407B610192019B002B14BF23
:103E500002210121BB613961C4B1A4F2334404449D
:103E60003460C0F135002860384602B0BDE8F0810A
:103E700042F48012D6E77961E7E701A8FFF7E2FD97
:103E80000121019B39617B612030E5E7A0F23240DE
:103E900007EB810330601869FFF7B4FDC0EB4110F8
:103EA000E1E738B502FB01F4214600F009F80546C8
:103EB00018B122460021FEF7ABFB284638BD0000B2
:103EC000F8B5CD1C25F0030508350C2D38BF0C25A1
:103ED000002D064601DBA94203D90C2333600020E4
:103EE000F8BD00F069F821490A6814469CB9204FD2
:103EF0003B6823B92146304600F03CF8386029463B
:103F0000304600F037F8431C23D10C233046336091
:103F100000F058F8E3E723685B1B17D40B2B03D999
:103F200023601C44256004E06368A2420CBF0B6060
:103F30005360304600F046F804F10B00231D20F0DA
:103F40000700C21ACCD01B1AA350C9E722466468E6
:103F5000CCE7C41C24F00304A042E3D0211A30466D
:103F600000F008F80130DDD1CFE700BF38020020B3
:103F70003C02002038B50023054C05460846236066
:103F800000F036F8431C02D1236803B12B6038BD22
:103F90000803002082B001B901A942B14BB11378E6
:103FA0000B601278101C18BF012002B07047104639
:103FB000FBE76FF00100F8E7014800F016B800BF1A
:103FC00010030020014800F011B800BF10030020CA
:103FD00049B1FF2A8BBF8A230A700360012088BF82
:103FE0004FF0FF3070470846704770477047000039
:103FF000044A05491368002B08BF0B46184410609B
:10400000184670474002002018030020F8B500BF92
:10401000F8BC08BC9E467047F8B500BFF8BC08BCA9
:044020009E46704701
:1040280002030405060708090A0B0C0D0E0F1010F1
:10403800010200000000000000000000010203046B
:1040480006070809000000000102030441540D0A94
:104058000000000041542B524F4C453D300D0A00E2
:1040680041542B554152543D3932313630302C3081
:104078002C300D0A0000000041542B524553455482
:104088000D0A0000494E4600696E66004E414E001A
:104098006E616E003000496E66696E697479004E13
:1040A800614E0000000000000080E03779C3414302
:1040B800176E05B5B5B89346F5F93FE9034F384D86
:1040C800321D30F94877825A3CBF737FDD4F157532
:1040D800000000000000F03F000000000000244045
:1040E80000000000000059400000000000408F4020
:1040F800000000000088C34000000000006AF8408B
:104108000000000080842E4100000000D0126341AE
:104118000000000084D797410000000065CDCD4124
:10412800000000205FA00242000000E87648374205
:10413800000000A2941A6D42000040E59C30A242A3
:104148000000901EC4BCD64200003426F56B0C4318
:104158000080E03779C3414300A0D88557347643BF
:1041680000C84E676DC1AB43003D9160E458E14320
:10417800408CB5781DAF154450EFE2D6E41A4B4495
:1041880092D54D06CFF08044F64AE1C7022DB544DA
:10419800B49DD9794378EA4405000000190000006D
:1041A8007D0000004300504F534958002E00002066
:1041B80020202020202020202828282828202020CF
:1041C800202020202020202020202020202020887F
:1041D80010101010101010101010101010101004E3
:1041E8000404040404040404041010101010101033
:1041F8004141414141410101010101010101010127
:10420800010101010101010101011010101010103C
:1042180042424242424202020202020202020202F6
:104228000202020202020202020210101010200012
:104238000000000000000000000000000000000076
:104248000000000000000000000000000000000066
:104258000000000000000000000000000000000056
:104268000000000000000000000000000000000046
:104278000000000000000000000000000000000036
:104288000000000000000000000000000000000026
:104298000000000000000000000000000000000016
:1042A8000000000000000000000000000000000006
:0442B80035010008C4
:0442BC0011010008E4
:1042C00001000000100000000024F4001000002095
:1042D00000000000000000000000000000000000DE
:1042E00000000000000000000000000000000000CE
:1042F00000000000000000000000000000000000BE
:1043000000000000000000000000000000000000AD
:10431000000000000000000000000000000000009D
:10432000000000000000000000000000000000008D
:10433000430000000000000000000000000000003A
:10434000000000000000000000000000000000006D
:10435000430000000000000000000000000000001A
:10436000000000000000000000000000000000004D
:1043700043000000000000000000000000000000FA
:10438000000000000000000000000000000000002D
:1043900043000000000000000000000000000000DA
:1043A000000000000000000000000000000000000D
:1043B00043000000000000000000000000000000BA
:1043C00000000000000000000000000000000000ED
:1043D000430000000000000000000000000000009A
:1043E00000000000000000000000000000000000CD
:1043F000430000000000000000000000000000007A
:1044000000000000000000000000000000000000AC
:10441000D13F0008953F000800000000B6410008A9
:10442000B4410008B5410008B5410008B541000895
:10443000B5410008B5410008B5410008B541000884
:10444000B5410008B5410008FFFFFFFFFFFFFFFF78
:10445000FFFFFFFFFFFF00000100415343494900F8
:10446000000000000000000000000000000000004C
:1044700000000000000000000000415343494900D3
:10448000000000000000000000000000000000002C
:0C44900000000000000000000000000020
:040000050800256169
:00000001FF
